{
	"data": {
		"bytecode": {
			"linkReferences": {},
			"object": "608060405234801561001057600080fd5b506102dc806100206000396000f30060806040526004361061008c5763ffffffff7c01000000000000000000000000000000000000000000000000000000006000350416623fd35a811461009157806318821400146100ba5780632a9053181461014457806356780085146101595780635b7f415c14610180578063726a431a14610195578063a9aad58c146101d3578063cf3b1967146101e8575b600080fd5b34801561009d57600080fd5b506100a6610213565b604080519115158252519081900360200190f35b3480156100c657600080fd5b506100cf610218565b6040805160208082528351818301528351919283929083019185019080838360005b838110156101095781810151838201526020016100f1565b50505050905090810190601f1680156101365780820380516001836020036101000a031916815260200191505b509250505060405180910390f35b34801561015057600080fd5b506100cf61024f565b34801561016557600080fd5b5061016e610286565b60408051918252519081900360200190f35b34801561018c57600080fd5b5061016e61028e565b3480156101a157600080fd5b506101aa610293565b6040805173ffffffffffffffffffffffffffffffffffffffff9092168252519081900360200190f35b3480156101df57600080fd5b506100a66102ab565b3480156101f457600080fd5b506101fd61028e565b6040805160ff9092168252519081900360200190f35b600181565b60408051808201909152600f81527f547572746c6564657820546f6b656e0000000000000000000000000000000000602082015281565b60408051808201909152600481527f5454445800000000000000000000000000000000000000000000000000000000602082015281565b6305f5e10081565b600881565b73f2f7622e33e6da56d7e54c34ea65e825999f34a181565b6000815600a165627a7a72305820f82d601c0549ab190af0ee1b050558680d32bea69a3fac81be3a0800a40e83500029",
			"opcodes": "PUSH1 0x80 PUSH1 0x40 MSTORE CALLVALUE DUP1 ISZERO PUSH2 0x10 JUMPI PUSH1 0x0 DUP1 REVERT JUMPDEST POP PUSH2 0x2DC DUP1 PUSH2 0x20 PUSH1 0x0 CODECOPY PUSH1 0x0 RETURN STOP PUSH1 0x80 PUSH1 0x40 MSTORE PUSH1 0x4 CALLDATASIZE LT PUSH2 0x8C JUMPI PUSH4 0xFFFFFFFF PUSH29 0x100000000000000000000000000000000000000000000000000000000 PUSH1 0x0 CALLDATALOAD DIV AND PUSH3 0x3FD35A DUP2 EQ PUSH2 0x91 JUMPI DUP1 PUSH4 0x18821400 EQ PUSH2 0xBA JUMPI DUP1 PUSH4 0x2A905318 EQ PUSH2 0x144 JUMPI DUP1 PUSH4 0x56780085 EQ PUSH2 0x159 JUMPI DUP1 PUSH4 0x5B7F415C EQ PUSH2 0x180 JUMPI DUP1 PUSH4 0x726A431A EQ PUSH2 0x195 JUMPI DUP1 PUSH4 0xA9AAD58C EQ PUSH2 0x1D3 JUMPI DUP1 PUSH4 0xCF3B1967 EQ PUSH2 0x1E8 JUMPI JUMPDEST PUSH1 0x0 DUP1 REVERT JUMPDEST CALLVALUE DUP1 ISZERO PUSH2 0x9D JUMPI PUSH1 0x0 DUP1 REVERT JUMPDEST POP PUSH2 0xA6 PUSH2 0x213 JUMP JUMPDEST PUSH1 0x40 DUP1 MLOAD SWAP2 ISZERO ISZERO DUP3 MSTORE MLOAD SWAP1 DUP2 SWAP1 SUB PUSH1 0x20 ADD SWAP1 RETURN JUMPDEST CALLVALUE DUP1 ISZERO PUSH2 0xC6 JUMPI PUSH1 0x0 DUP1 REVERT JUMPDEST POP PUSH2 0xCF PUSH2 0x218 JUMP JUMPDEST PUSH1 0x40 DUP1 MLOAD PUSH1 0x20 DUP1 DUP3 MSTORE DUP4 MLOAD DUP2 DUP4 ADD MSTORE DUP4 MLOAD SWAP2 SWAP3 DUP4 SWAP3 SWAP1 DUP4 ADD SWAP2 DUP6 ADD SWAP1 DUP1 DUP4 DUP4 PUSH1 0x0 JUMPDEST DUP4 DUP2 LT ISZERO PUSH2 0x109 JUMPI DUP2 DUP2 ADD MLOAD DUP4 DUP3 ADD MSTORE PUSH1 0x20 ADD PUSH2 0xF1 JUMP JUMPDEST POP POP POP POP SWAP1 POP SWAP1 DUP2 ADD SWAP1 PUSH1 0x1F AND DUP1 ISZERO PUSH2 0x136 JUMPI DUP1 DUP3 SUB DUP1 MLOAD PUSH1 0x1 DUP4 PUSH1 0x20 SUB PUSH2 0x100 EXP SUB NOT AND DUP2 MSTORE PUSH1 0x20 ADD SWAP2 POP JUMPDEST POP SWAP3 POP POP POP PUSH1 0x40 MLOAD DUP1 SWAP2 SUB SWAP1 RETURN JUMPDEST CALLVALUE DUP1 ISZERO PUSH2 0x150 JUMPI PUSH1 0x0 DUP1 REVERT JUMPDEST POP PUSH2 0xCF PUSH2 0x24F JUMP JUMPDEST CALLVALUE DUP1 ISZERO PUSH2 0x165 JUMPI PUSH1 0x0 DUP1 REVERT JUMPDEST POP PUSH2 0x16E PUSH2 0x286 JUMP JUMPDEST PUSH1 0x40 DUP1 MLOAD SWAP2 DUP3 MSTORE MLOAD SWAP1 DUP2 SWAP1 SUB PUSH1 0x20 ADD SWAP1 RETURN JUMPDEST CALLVALUE DUP1 ISZERO PUSH2 0x18C JUMPI PUSH1 0x0 DUP1 REVERT JUMPDEST POP PUSH2 0x16E PUSH2 0x28E JUMP JUMPDEST CALLVALUE DUP1 ISZERO PUSH2 0x1A1 JUMPI PUSH1 0x0 DUP1 REVERT JUMPDEST POP PUSH2 0x1AA PUSH2 0x293 JUMP JUMPDEST PUSH1 0x40 DUP1 MLOAD PUSH20 0xFFFFFFFFFFFFFFFFFFFFFFFFFFFFFFFFFFFFFFFF SWAP1 SWAP3 AND DUP3 MSTORE MLOAD SWAP1 DUP2 SWAP1 SUB PUSH1 0x20 ADD SWAP1 RETURN JUMPDEST CALLVALUE DUP1 ISZERO PUSH2 0x1DF JUMPI PUSH1 0x0 DUP1 REVERT JUMPDEST POP PUSH2 0xA6 PUSH2 0x2AB JUMP JUMPDEST CALLVALUE DUP1 ISZERO PUSH2 0x1F4 JUMPI PUSH1 0x0 DUP1 REVERT JUMPDEST POP PUSH2 0x1FD PUSH2 0x28E JUMP JUMPDEST PUSH1 0x40 DUP1 MLOAD PUSH1 0xFF SWAP1 SWAP3 AND DUP3 MSTORE MLOAD SWAP1 DUP2 SWAP1 SUB PUSH1 0x20 ADD SWAP1 RETURN JUMPDEST PUSH1 0x1 DUP2 JUMP JUMPDEST PUSH1 0x40 DUP1 MLOAD DUP1 DUP3 ADD SWAP1 SWAP2 MSTORE PUSH1 0xF DUP2 MSTORE PUSH32 0x547572746C6564657820546F6B656E0000000000000000000000000000000000 PUSH1 0x20 DUP3 ADD MSTORE DUP2 JUMP JUMPDEST PUSH1 0x40 DUP1 MLOAD DUP1 DUP3 ADD SWAP1 SWAP2 MSTORE PUSH1 0x4 DUP2 MSTORE PUSH32 0x5454445800000000000000000000000000000000000000000000000000000000 PUSH1 0x20 DUP3 ADD MSTORE DUP2 JUMP JUMPDEST PUSH4 0x5F5E100 DUP2 JUMP JUMPDEST PUSH1 0x8 DUP2 JUMP JUMPDEST PUSH20 0xF2F7622E33E6DA56D7E54C34EA65E825999F34A1 DUP2 JUMP JUMPDEST PUSH1 0x0 DUP2 JUMP STOP LOG1 PUSH6 0x627A7A723058 KECCAK256 0xf8 0x2d PUSH1 0x1C SDIV 0x49 0xab NOT EXP CREATE 0xee SHL SDIV SDIV PC PUSH9 0xD32BEA69A3FAC81BE GASPRICE ADDMOD STOP LOG4 0xe DUP4 POP STOP 0x29 "
		},
		"gasEstimates": {
			"creation": {
				"codeDepositCost": "146400",
				"executionCost": "190",
				"totalCost": "146590"
			},
			"external": {
				"CONTINUE_MINTING()": "190",
				"PAUSED()": "322",
				"TARGET_USER()": "303",
				"TOKEN_DECIMALS()": "272",
				"TOKEN_DECIMALS_UINT8()": "347",
				"TOKEN_DECIMAL_MULTIPLIER()": "250",
				"TOKEN_NAME()": "infinite",
				"TOKEN_SYMBOL()": "infinite"
			}
		},
		"methodIdentifiers": {
			"CONTINUE_MINTING()": "003fd35a",
			"PAUSED()": "a9aad58c",
			"TARGET_USER()": "726a431a",
			"TOKEN_DECIMALS()": "5b7f415c",
			"TOKEN_DECIMALS_UINT8()": "cf3b1967",
			"TOKEN_DECIMAL_MULTIPLIER()": "56780085",
			"TOKEN_NAME()": "18821400",
			"TOKEN_SYMBOL()": "2a905318"
		}
	},
	"abi": [
		{
			"constant": true,
			"inputs": [],
			"name": "CONTINUE_MINTING",
			"outputs": [
				{
					"name": "",
					"type": "bool"
				}
			],
			"payable": false,
			"stateMutability": "view",
			"type": "function"
		},
		{
			"constant": true,
			"inputs": [],
			"name": "TOKEN_NAME",
			"outputs": [
				{
					"name": "",
					"type": "string"
				}
			],
			"payable": false,
			"stateMutability": "view",
			"type": "function"
		},
		{
			"constant": true,
			"inputs": [],
			"name": "TOKEN_SYMBOL",
			"outputs": [
				{
					"name": "",
					"type": "string"
				}
			],
			"payable": false,
			"stateMutability": "view",
			"type": "function"
		},
		{
			"constant": true,
			"inputs": [],
			"name": "TOKEN_DECIMAL_MULTIPLIER",
			"outputs": [
				{
					"name": "",
					"type": "uint256"
				}
			],
			"payable": false,
			"stateMutability": "view",
			"type": "function"
		},
		{
			"constant": true,
			"inputs": [],
			"name": "TOKEN_DECIMALS",
			"outputs": [
				{
					"name": "",
					"type": "uint256"
				}
			],
			"payable": false,
			"stateMutability": "view",
			"type": "function"
		},
		{
			"constant": true,
			"inputs": [],
			"name": "TARGET_USER",
			"outputs": [
				{
					"name": "",
					"type": "address"
				}
			],
			"payable": false,
			"stateMutability": "view",
			"type": "function"
		},
		{
			"constant": true,
			"inputs": [],
			"name": "PAUSED",
			"outputs": [
				{
					"name": "",
					"type": "bool"
				}
			],
			"payable": false,
			"stateMutability": "view",
			"type": "function"
		},
		{
			"constant": true,
			"inputs": [],
			"name": "TOKEN_DECIMALS_UINT8",
			"outputs": [
				{
					"name": "",
					"type": "uint8"
				}
			],
			"payable": false,
			"stateMutability": "view",
			"type": "function"
		}
	]
}